S3150800800018280020A981000873A100088B9A000887
S3150800801005A1000881860008C5B90008000000000F
S3150800802000000000000000000000000087A600080D
S31508008030019200080000000021A300088DAB00088B
S31508008040C3810008C3810008C3810008C3810008F2
S31508008050C3810008C3810008C3810008C3810008E2
S31508008060C3810008C3810008C3810008C3810008D2
S31508008070C3810008C3810008C3810008C3810008C2
S31508008080C3810008C3810008C3810008C3810008B2
S31508008090C3810008C3810008C3810008C3810008A2
S315080080A0C3810008C3810008C3810008C381000892
S315080080B0F1AB0008C3810008C3810008C38100082A
S315080080C0C3810008C3810008C3810008C381000872
S315080080D0C381000835B40008C9B6000855B70008BA
S315080080E0C3810008C3810008C381000800F002F8B4
S315080080F000F03AF80AA090E8000C82448344AAF1FA
S315080081000107DA4501D100F02FF8AFF2090EBAE8F7
S315080081100F0013F0010F18BFFB1A43F001031847AD
S315080081204846000068460000103A24BF78C878C15F
S31508008130FAD8520724BF30C830C144BF04680C605F
S31508008140704700000023002400250026103A28BFA7
S3150800815078C1FBD8520728BF30C148BF0B607047AB
S315080081601FB51FBD10B510BD00F08CF81146FFF7FE
S31508008170F7FF03F0ADFF00F0AAF803B4FFF7F2FF2C
S3150800818003BC03F031FF0000EFF30980704780F36A
S3150800819009887047EFF30880704780F308887047AE
S315080081A040BA7047C0BA704709488047094800472F
S315080081B0FEE7FEE7FEE7FEE7FEE7FEE7FEE7FEE789
S315080081C0FEE7FEE704480549054A064B70470000E6
S315080081D091AB0008ED80000818220020182800201E
S315080081E0182400201824002070474FF000020429A4
S315080081F0C0F0128010F0030C00F01B80CCF1040CC8
S31508008200BCF1020F18BF00F8012BA8BF20F8022BFB
S31508008210A1EB0C0100F00DB85FEAC17C24BF00F8A1
S31508008220012B00F8012B48BF00F8012B70474FF0CF
S31508008230000200B5134694469646203922BFA0E8A8
S315080082400C50A0E80C50B1F12001BFF4F7AF0907B4
S3150800825028BFA0E80C5048BF0CC05DF804EB8900A5
S3150800826028BF40F8042B08BF704748BF20F8022BE8
S3150800827011F0804F18BF00F8012B70477047704700
S3150800828070477047754600F02BF8AE4605006946FC
S31508008290534620F00700854618B020B5FFF792FF31
S315080082A0BDE820404FF000064FF000074FF00008E9
S315080082B04FF0000B21F00701AC46ACE8C009ACE86A
S315080082C0C009ACE8C009ACE8C0098D46704710B5CE
S315080082D00446AFF300802046BDE81040FFF74DBFC7
S315080082E000487047B821002010B54FF4407001F0DF
S315080082F079FF00F0C7F9482003F078FE144908030F
S3150800830001F07AFF01F0D0FA02F0AAFF03F0F4F8C0
S3150800831001F000F902F0ECFF03F034F903F0DEF89F
S3150800832003F00AFA01F060FE00F076F901F066FC47
S3150800833000F0A0F902F08CFB00F042F900F03AFADE
S3150800834002F016F803F088FD02F022FF10BD0000C7
S315080083500080000810B54FF40051094801F091FB60
S315080083604021084801F08DFB4FF40041044801F014
S3150800837088FB4FF48041024801F083FB10BD0000E2
S31508008380000C01400010014010B54FF40051094897
S3150800839001F077FB4021084801F075FB4FF40041D6
S315080083A0044801F06EFB4FF48041024801F069FB76
S315080083B010BD0000000C01400010014010B5064B2E
S315080083C01870064B1970064B1A700023054C23705B
S315080083D0054C237010BD00007500002076000020B3
S315080083E078000020740000207700002010B52A4885
S315080083F0007800284FD029480088401C00B2274939
S3150800840008802749B1F9001088422BDB0020234950
S31508008410088024480078401C40B2224908701E494A
S3150800842091F90010204A92F900201144884232DB63
S3150800843000201C4908701D480078401C40B21B49A2
S3150800844008701B4991F90010884224DB002017495F
S315080084500870174890F9000064281CDA00200E49B5
S31508008460087018E00D48B0F900001249B1F900107B
S31508008470884204DB2021104801F003FB0BE0094881
S3150800848090F90000044991F90010884203DA202186
S31508008490094801F0F8FA10BD750000206E000020AA
S315080084A0700000207400002076000020770000206D
S315080084B078000020720000200008014010B5002056
S315080084C0034908702021034801F0DBFA10BD0000BB
S315080084D0750000200008014010B500200349087007
S315080084E02021034801F0CFFA10BD000075000020D6
S315080084F000080140034A1080034A11800022034BFA
S315080085001A80704770000020720000206E0000205C
S3150800851010B54FF48051044801F0AAFA08B10120B9
S3150800852010BD0020FCE700000008014010B54FF41C
S315080085300061024801F0A7FA10BD000000080140DA
S3150800854010B5194890F90000FF2813DA1648007884
S31508008550401C40B2144908701448007850B10846C7
S315080085600078322806D100201049087010491148B1
S3150800857002F0A6FFFFF7CCFF04460F4890F900006B
S3150800858084420CD00D480078401C40B20B49087054
S315080085900A2807DB002008700748047002E000205C
S315080085A00649087010BD0000790000208F000020E1
S315080085B07B000020003801407A000020900000204F
S315080085C008B50121082001F021FF0120ADF80000BF
S315080085D010208DF8030003208DF802006946024832
S315080085E001F072F908BD0000000C014008B5012130
S315080085F0042001F00BFF2020ADF8000010208DF8B4
S31508008600030003208DF802006946024801F05CF970
S3150800861008BD00000008014010B5FFF7E7FF642118
S31508008620C820FFF767FF10BD08B50121042001F037
S31508008630EDFE4FF40060ADF8000010208DF8030041
S3150800864003208DF802006946094801F03DF9012129
S31508008650042001F0DBFE4FF48050ADF80000042042
S315080086608DF803006946024801F02EF908BD00009E
S315080086700008014010B5FFF7D7FFFFF757FF10BDF9
S3150800868000BFFEE70748006840F0807005490860AB
S315080086900020054948600846006840F00100086067
S315080086A070470000FCED00E0001000E0014840685B
S315080086B070470000001000E031B50023104800683C
S315080086C0104DB0FBF5F0009D00FB05F400BFFFF769
S315080086D0EDFF024611E0FFF7E9FF014691420CD093
S315080086E0914202D9881A034403E0C2F1FF300844D4
S315080086F003440A46A34200D300E0ECE700BF38BDB6
S315080087002000002040420F0010B5204800780028BD
S315080087103BD11E480079012837D000201C494870F3
S315080087208870C870194948718871C8711849887263
S31508008730C87200F013FE002016490870012008715F
S3150800874000208871C8714871134908801349088048
S3150800875013490880134908800D49487201200B49BE
S3150800876048730020887340210F4801F08AF94FF4B6
S3150800877000410E4801F085F94FF480410B4801F09D
S3150800878080F900210A4802F091FA10BD482100201C
S315080087901C2100205C210020D0000020D2000020EF
S315080087A0D4000020D600002000100140000C014033
S315080087B00004004008B50121102001F027FE202002
S315080087C0ADF8000010208DF8030003208DF8020094
S315080087D06946044801F078F82021024801F051F969
S315080087E008BD0000001001401CB502464FF6FF7098
S315080087F000240194009401941DE09DF80440135D43
S315080088005840002400940DE000F0010424B1401003
S315080088104AF20104604000E040109DF80040641CE4
S31508008820E4B200949DF80040082CEDDB9DF8044066
S31508008830641CE4B201949DF804408C42DDDB1CBD47
S31508008840012180F806140021A0F80014A0F80214EB
S31508008850A0F804147047000000F0805111B10349D4
S31508008860086001E0024948607047000004040240BD
S315080088700000024021B1026842F00102026004E0F1
S3150800888002684FF6FE731A400260704701684FF699
S31508008890FE72114001600021016041608160C16083
S315080088A04B49884208D14A490839496841F00F01BD
S315080088B0474A083A51608AE045491431884208D146
S315080088C043490839496841F0F001414A083A51607C
S315080088D07DE03F492831884208D13D490839496831
S315080088E041F470613A4A083A516070E038493C31BF
S315080088F0884208D136490839496841F47041344AF2
S31508008900083A516063E032495031884208D130490B
S315080089100839496841F470212D4A083A516056E0F1
S315080089202B496431884208D129490839496841F4F4
S315080089307001274A083A516049E02549783188424A
S3150800894008D123490839496841F07061204A083A34
S3150800895051603CE01F49884206D1011F096841F071
S315080089600F01021F116032E01A491431884208D1FA
S315080089701849091F096841F0F001164A121F1160CB
S3150800898025E014492831884208D11249091F096887
S3150800899041F470610F4A121F116018E00D493C310D
S315080089A0884208D10B49091F096841F47041094AF0
S315080089B0121F11600BE007495031884207D105495B
S315080089C0091F096841F47021024A121F1160704795
S315080089D008000240080402400146486880B2704711
S315080089E001460020002201F0805313B1054B1A6896
S315080089F001E0054B1A6802EA01030BB1012000E009
S31508008A0000207047000402400000024010B5002212
S31508008A10026847F6F0739A430C6A8B6823430C691D
S31508008A2023434C6923438C692343CC6923434C6A0B
S31508008A3023438C6A23431A430260CB6843600B685E
S31508008A4083604B68C36010BD4160704770B50446CB
S31508008A500D4605B970BDA078312804D032287CD0DF
S31508008A6033287BD190E3E078022878D1207905284D
S31508008A7076D008DC01280DD0022825D003284BD053
S31508008A8004286ED170E006286CD007286BD0AA2877
S31508008A90F7D1DCE00120FE490870607940B2FD4953
S31508008AA008700846007820B908460078FA49087020
S31508008AB003E0F8480078F8490870231D012231219F
S31508008AC0022001F05DFEC9E00120F1490870F24874
S31508008AD00078D0B10120EF49487000208870C8702E
S31508008AE00871ED498871C871EA4948730120EA4955
S31508008AF048710020E9494871E7490872487200211F
S31508008B00E74802F0D3F801F081FB231D0122312149
S31508008B10104601F035FEA1E00120DD490870DE4867
S31508008B20007898B10020DB49487001208870002041
S31508008B30C8700871D8494871C871D64948734872CF
S31508008B400872D5490872487201F060FB231D01229C
S31508008B503121104601F014FE80E081E027E37EE033
S31508008B6028E07AE045E05FE00120C9490870CA4874
S31508008B700078C0B10020C749487088700120C870C5
S31508008B8000200871C44988714871C2494873012098
S31508008B90C149C8710020487208720021C04802F015
S31508008BA085F801F0B5FF231D01223121104601F099
S31508008BB0E7FD53E00120B6490870B749087101225C
S31508008BC00821B74802F08FF83221B64802F049F971
S31508008BD04FF496614FF0804002F045F90121B24802
S31508008BE000F051FF231D01223121104601F0C8FD76
S31508008BF034E00120A64908700020A649487088700C
S31508008C00C870012008710020A34988714871C8718D
S31508008C100872A0498872C8724872231D0122312140
S31508008C20104601F0ADFD19E00120994908706079F8
S31508008C3099490873231D01223121104601F0A0FD30
S31508008C40032001F0E1FD042001F0DEFD06E001202D
S31508008C508F4908709049488000E000BF00BFA7E22E
S31508008C60E078022872D12079232870D010DC1328E6
S31508008C706ED006DC10281CD0112849D0122846D1FF
S31508008C8067E020287ED021287DD02228F7D1EEE083
S31508008C90332879D006DC302877D0312876D03228A8
S31508008CA0EDD16DE1402872D0412871D04228E6D135
S31508008CB03AE201207649087076484078012820D1A2
S31508008CC0607940B2734948710846407988B10120F5
S31508008CD0714948716F48407A012801D1FFF754FB62
S31508008CE06C48007A01280CD1704800786B490870E6
S31508008CF007E000206E490860674948710872FFF767
S31508008D0029FB231D01223221022001F039FD39E217
S31508008D1001205F4908705F48407801280FD16079C3
S31508008D2040B25C4948720846407A30B15A484079A0
S31508008D30012802D1FFF728FB01E0FFF70BFB231DF3
S31508008D4001223221022001F01BFD1BE21BE2B9E0E1
S31508008D502DE001204E4908704E48407801281FD161
S31508008D60607940B24B4908724B484079012812D1C4
S31508008D700846007A01280ED1474908724B48007800
S31508008D80464906E034E059E036E1ACE0D7E06EE16A
S31508008D90A8E1087004E000203F4908723F490870BE
S31508008DA0231D01223221022001F0EAFCEAE101201A
S31508008DB03749087037484078012812D16079374911
S31508008DC00870A0790002488008464088E17908437F
S31508008DD032494880084600783449088000203449DA
S31508008DE00860231D01223221042001F0C9FCC9E1D3
S31508008DF001202749087027488078012817D160790B
S31508008E0040B2244988710846807928B10120224950
S31508008E10887101F015FA0AE000201F49887100F0F0
S31508008E209DFA01F0F3F900211D4801F03FFF231DCB
S31508008E3001223221022001F0A3FCA3E101201449FA
S31508008E4008701448807801280AD1607940B211491F
S31508008E5088720020C87201200F4948730020887361
S31508008E60231D01223221022001F08AFC8AE1012019
S31508008E70074908700748807801281CD1607940B2F4
S31508008E800449C8720020887203494873012011E01A
S31508008E90D90000201C210020482100205C21002048
S31508008EA00004004000080040000C0140D6000020E5
S31508008EB0E80000208873231D01223221022001F0D8
S31508008EC05FFC5FE10120C0490870C048807801282E
S31508008ED002D16079BE490871231D01223221022080
S31508008EE001F04EFC4EE10120B7490870B748C0783A
S31508008EF001281DD1607940B2B449C8710846C079C5
S31508008F0078B10120B349C871B3480078B0494871AF
S31508008F10B24800788871B2480078C87101F00CFE32
S31508008F2006E00020AB49C871A94988714871C87123
S31508008F30231D01223221022001F022FC22E1012018
S31508008F40A1490870A148C078012812D10020A54976
S31508008F50086060799E494871A0790002C881084670
S31508008F60C089E17908439A49C881084640799A49EF
S31508008F700880231D01223221022001F001FC01E1B3
S31508008F800120914908709148C07801282DD160794F
S31508008F908F4988716079914908808D4880790528BC
S31508008FA022D2DFE800F0030910161B004FF47A718D
S31508008FB0C80601F058FF17E040F2EE214FF0804056
S31508008FC001F051FF10E04FF4FA71080701F04BFF6A
S31508008FD00AE0FA21480701F046FF05E000214FF0B4
S31508008FE0804001F040FF00BF00BF231D012232214F
S31508008FF0022001F0C5FBC5E00120734908707348DB
S31508009000C07801282CD160797149C8710846C079A1
S31508009010734908806E48C07918B97348734948601F
S315080090201EE06B48C079012803D16F486F49486034
S3150800903016E06748C079022803D16D486B49486035
S315080090400EE06348C079032803D16A486749486037
S3150800905006E05F48C079042802D16748634948603A
S31508009060231D01223221022001F08AFB8AE0012019
S31508009070554908705548007930B3607940B253496C
S3150800908048735448807A01281FD101F0D9F801F0B5
S3150800909049F95048C07A012809D101F0F5FA4FF488
S315080090A0F061564801F0DDFE00F076F913E0494814
S315080090B0C07A02280FD101F003FB4FF4F0614F4844
S315080090C001F0D1FE00F04EF905E04248807A022808
S315080090D001D101F01DFD231D01223221022001F0DC
S315080090E04FFB4FE001203849087038480079A0B195
S315080090F06079384988720846807A012802D101F0D9
S3150800910011F90AE000203149487300F027F901F007
S31508009110FFFC04202E494871C871231D0122322103
S31508009120022001F02DFB2DE0012027490870607907
S315080091302849C8722548407B68B10846C07A012884
S3150800914009D101F0A1FA4FF4F0612C4801F089FE2B
S3150800915000F022F90FE01D48407B60B11D48C07A37
S31508009160022808D101F0ACFA4FF4F061234801F067
S315080091707AFE00F0F7F8231D01223221022001F0C1
S31508009180FFFA00BF00BF13E0E07802280ED120796D
S3150800919040280AD1012060710020A071231D0122F8
S315080091A03321032001F0ECFA00BF00BF00E000BF46
S315080091B000BF0548007820B1002211460120FFF7BC
S315080091C0FDF800BF46E40000D90000201C2100205D
S315080091D05C21002048210020D2000020D000002079
S315080091E0D4000020EC0000200080A244A02100202A
S315080091F00020324500803B4500C041450004004040
S315080092007047000010B50446204602F0BDFB4C48E6
S31508009210007808280AD2DFE800F0040A14283A4D34
S315080092205A71552C02D101204549087085E0AA2CAF
S3150800923003D102204249087002E000204049087024
S315080092407BE04048047000203F4908703D4800789C
S315080092503E493D4A127888543B480078401C3A49B2
S31508009260087003203649087067E064B90420344959
S315080092700870364834490978445433480078401C05
S315080092803149087002E000202D49087055E0732C1A
S315080092900CD105202A4908702C482B4909784454D2
S315080092A029480078401C2849087002E00020244913
S315080092B0087042E0062022490870244822490978A5
S315080092C0445421480078401C1F49087035E01E4860
S315080092D001781C480078401C814209DA1B481A4963
S315080092E00978445418480078401C1749087004E067
S315080092F0174804700720124908701EE015480470C4
S3150800930010480078401CC1B21048FFF76DFA1249A0
S315080093100860104800780E49097840EA01200E498D
S315080093200968884205D1074801780848401CFFF7B4
S315080093308DFB00200249087000BF00BF10BD000069
S31508009340DA000020DB000020D80000202A210020B7
S31508009350DC000020DD000020E000002010B501F050
S3150800936007F810BD08B50121042001F04FF8402088
S31508009370ADF8000010208DF8030003208DF80200D8
S315080093806946044800F0A0FA4021024800F079FB3B
S3150800939008BD00000008014008B50121042001F0BD
S315080093A035F88020ADF8000010208DF80300032062
S315080093B08DF802006946044800F086FA80210248C2
S315080093C000F05FFB08BD0000000801400149C860C5
S315080093D0704700000020024030B5044604254FF4CB
S315080093E0302000F06FF80546042D17D10C480069A7
S315080093F040F002000A49086108464461006940F0E5
S31508009400400008614FF4302000F05CF80546044837
S31508009410006941F6FD71084001490861284630BDDA
S315080094200020024004200B49C96801F0010109B176
S3150800943001200EE00749C96801F0040109B10220BC
S3150800944007E00449C96801F0100109B1032000E0EA
S3150800945004207047002002400348006940F080005D
S3150800946001490861704700000020024070B50446B3
S315080094700D460426F00200F025F80646042E11D102
S315080094800948006940F00100074908612580F00293
S3150800949000F018F806460448006941F6FE710840CF
S315080094A001490861304670BD002002400248034960
S315080094B0486003484860704723016745002002401A
S315080094C0AB89EFCD00B502460423FFF7ABFF034691
S315080094D003E0FFF7A7FF0346521E012B01D1002A1E
S315080094E0F7D102B90523184600BD08B54FF44070F8
S315080094F000F078FE27208DF8000004208DF8010082
S3150800950000208DF8020001208DF80300684600F05F
S3150800951031FE08BD00B585B00121082000F076FFB0
S315080095200121880400F062FF4FF48060ADF8100056
S3150800953018208DF8130003208DF8120004A9174887
S3150800954000F0C2F94FF40060ADF8100004208DF861
S31508009550130004A9114800F0B7F94FF4165000900B
S315080095600020ADF80400ADF80600ADF80800ADF827
S315080095700C000C20ADF80A006946094802F06EF99D
S31508009580FFF7B3FF012240F22551054802F040F9E2
S315080095900121034802F0F0F805B000BD000C0140B7
S315080095A00048004070B505460E461446294800682E
S315080095B0401C28490860052D49D2DFE805F0030854
S315080095C0233E43000021244801F04BFC40E021489B
S315080095D00068A04204DC00211F4801F042FC10E0AC
S315080095E01C480068A04209DD1A480068B0EB440F21
S315080095F004DA5021184801F034FC02E0002015492D
S31508009600086025E013480068A04204DC00211248DF
S3150800961001F027FC10E00F480068A04209DD0D485C
S315080096200068B0EB440F04DA64210B4801F019FC1A
S3150800963002E00020074908600AE05021064801F0C8
S3150800964010FC05E03146044801F00BFC00E000BFC1
S3150800965000BF70BDE80000200008004008B50121E1
S31508009660084600F0D3FE01210C4800F0B9F90121A3
S315080096700B4800F0B5F90121082000F0C7FE0820C4
S31508009680ADF8000018208DF8030003208DF80200BD
S315080096906946044800F018F908BD000000023000C9
S315080096A000031800000C014008B50121042000F051
S315080096B0ADFE4020ADF8000018208DF80300032009
S315080096C08DF8020069460A4800F0FEF801210420D8
S315080096D000F09CFE8020ADF8000018208DF80300ED
S315080096E003208DF802006946014800F0EDF808BD30
S315080096F00008014008B50121082000F087FE402037
S31508009700ADF8000018208DF8030003208DF802003C
S315080097106946024800F0D8F808BD0000000C014070
S3150800972000B587B00121084600F060FE40F65F10DC
S31508009730ADF814000120ADF810000020ADF81600B1
S31508009740ADF812008DF8180004A94FF0804001F01A
S315080097508DFB0121880701F0A3FA01221146900723
S3150800976001F0C1FA6020ADF800000120ADF8020052
S315080097700020ADF808004FF41660ADF806006946FB
S315080097804FF0804001F00EFB0821C80601F05CFB93
S315080097900121880701F08AFA07B000BD08B54FF421
S315080097A0407000F01FFD1C208DF8000006208DF883
S315080097B0010000208DF8020001208DF8030068469C
S315080097C000F0D8FC08BD000000B587B001210220D2
S315080097D000F00CFE40F65F10ADF814000120ADF85D
S315080097E010000020ADF81600ADF812008DF818002C
S315080097F004A9134801F03AFB6020ADF800000120E7
S31508009800ADF802000020ADF80800ADF8060069467C
S315080098100B4801F071FA0821094801F0B9FA00204D
S31508009820ADF806006946064801F0BCFA0821044866
S3150800983001F00AFB0021024801F038FA07B000BD22
S315080098400004004000B587B00121042000F0CEFDD9
S315080098506320ADF814004720ADF810000020ADF8DD
S315080098601600ADF812008DF8180004A90D4801F08D
S31508009870FDFA6020ADF800000120ADF802000020D6
S31508009880ADF80800ADF806006946064801F034FA56
S315080098900821044801F07CFA0121024801F006FA81
S315080098A007B000BD0008004010B5FFF7D7FEFFF768
S315080098B075FFFFF735FFFFF7F7FEFFF785FFFFF7A1
S315080098C019FFFFF7BFFF10BD2DE9F041024600253D
S315080098D00026002000230024002791F803C00CF07E
S315080098E00F0591F803C00CF0100CBCF1000F03D063
S315080098F091F802C04CEA050591F800C0BCF1000FCA
S3150800990031D0146800202BE04FF0010C0CFA00F35C
S31508009910B1F800C00CEA03069E4220D183004FF03E
S315080099200F0C0CFA03F7BC4305FA03FC4CEA0404D3
S3150800993091F803C0BCF1280F06D14FF0010C0CFAC0
S3150800994000FCC2F814C00AE091F803C0BCF1480F45
S3150800995005D14FF0010C0CFA00FCC2F810C0401CEF
S315080099600828D1D31460B1F800C0BCF1FF0F34DD6C
S31508009970546800202EE000F1080C4FF0010808FAA0
S315080099800CF3B1F800C00CEA03069E4221D183000D
S315080099904FF00F0C0CFA03F7BC4305FA03FC4CEA2C
S315080099A0040491F803C0BCF1280F05D100F1080C96
S315080099B008FA0CF8C2F8148091F803C0BCF1480FF5
S315080099C007D100F1080C4FF0010808FA0CF8C2F8A4
S315080099D01080401C0828CED35460BDE8F0810000F2
S315080099E0F0B50A46002300240021002500F00046B1
S315080099F0B6F1004F02D11D4EF16901E01B4E7168A8
S31508009A00C0F3034583B200F44016B6F5401F08D1EB
S31508009A1021F07061154E766826F07066134F7E60E9
S31508009A2012E000F48016B6F5801F06D1032606FA62
S31508009A3005F4A14341F0706106E0460D360103FACC
S31508009A4006F6B14341F0706122B1460D360103FABC
S31508009A5006F6314300F00046B6F1004F02D1034E38
S31508009A60F16101E0014E7160F0BD000000000140A7
S31508009A700246002093680B400BB1012000E000204D
S31508009A807047416170470161704700BFFEE70000FB
S31508009A904CF6CC4001490860704700000030004091
S31508009AA010B500F013F810BD70B505460C4645F222
S31508009AB0555000F01FF8284600F010F8204600F030
S31508009AC013F800F003F8FFF7E3FF70BD4AF6AA2083
S31508009AD001490860704700000030004001494860AD
S31508009AE07047000000300040014988607047000058
S31508009AF0003000400149086070470000003000400F
S31508009B0070B500F09BF80646042E00DD04260024F6
S31508009B1069E0611CC8B200F093F805463348005D59
S31508009B2010B1012858D131E03148005DA84208D06B
S31508009B302F48055500202F49085501202B4908555F
S31508009B4023E015B32C4830F814004FF6FF7188420D
S31508009B501BD0294830F81400401C274921F8140066
S31508009B60084630F81400C82804D104F12101C8B207
S31508009B7000F0CAF8204830F81400B0F5C87F04D1C0
S31508009B8004F11101C8B200F0BFF829E01848005DD9
S31508009B90A8421BD11748005D401CC0B2154908559C
S31508009BA0052818DB4DB104F18101C8B200F0ACF804
S31508009BB00020114921F8140004E004F14101C8B25B
S31508009BC000F0A2F800200949085504E008480555A0
S31508009BD000200649085503E000200449085500BF3F
S31508009BE000BF601CC4B2B44293DB70BD9C00002069
S31508009BF0AC000020A8000020A000002008B5012124
S31508009C00082000F003FC8020ADF8000004208DF841
S31508009C10030069460848FFF757FE0121082000F0AF
S31508009C20F5FB8020ADF8000004208DF80300694696
S31508009C300148FFF749FE08BD000C014003207047A4
S31508009C4070B504460025012C02D0022C14D109E077
S31508009C5080210B48FFF70CFF08B1012000E0002027
S31508009C60054609E020210648FFF702FF08B1012052
S31508009C7000E00020054600BF00BF284670BD000072
S31508009C80000C014000200B49097891B1094909786F
S31508009C90491E084A11700849084A1278885C07491B
S31508009CA00978491CC9B2054A1170072901DB002148
S31508009CB0117070479B000020920000209900002038
S31508009CC070B5FFF7DFFF04461AE004F0F00504F06C
S31508009CD00F04012C02D0022C0ED106E0802D02D1F1
S31508009CE002F012F900BF00BF06E0802D02D102F093
S31508009CF033F900BF00BF00BF00BFFFF7C3FF04462C
S31508009D00002CE2D170BD00000B490978072912DA48
S31508009D1009490978491C084A11700849084A1278FD
S31508009D20885407490978491CC9B2054A1170072998
S31508009D3001DB0021117070479B0000209200002073
S31508009D409A00002030B503465C1E60B2044C2154CC
S31508009D50044C22540024044D2C54044D2C8030BD50
S31508009D6050000020540000204C0000206C00002009
S31508009D7070B56F480088401C00B26D4908804EF6E1
S31508009D806021884202DB00206949088000F02AF930
S31508009D900546042D00DD04250024C5E06548005D60
S31508009DA0002850D06248B0F90000642190FBF1F217
S31508009DB001FB1200002846D15F48005D401C40B2F6
S31508009DC05D4908555D490957884227DB00205A49ED
S31508009DD008555B48005D401C40B25949085555492D
S31508009DE00957584A1257114488422CDB0020544917
S31508009DF008555548005D401C40B25349085553491B
S31508009E00095788421FDB00204F4908554F4800571D
S31508009E10642818DA00204749085514E046480057D0
S31508009E204B490957884204DB611C48B202F0CCF85A
S31508009E3009E0434800573F490957884203DA611C3D
S31508009E4048B202F0C9F84348005D00284BD04248A2
S31508009E50005D20B33648B0F90000052190FBF1F209
S31508009E6001FB120088BB3D480057002809DD3B4826
S31508009E70005D401E40B2394908550020384908554A
S31508009E8031E03748005D401C40B235490855084660
S31508009E9000570A2827DB00202F49085523E02448C5
S31508009EA0B0F90000052190FBF1F201FB120060B940
S31508009EB02A480057642809DA2848005D401C40B241
S31508009EC0264908550020264908550CE02448005D17
S31508009ED0401C40B22249085508460057012802DBB3
S31508009EE001201D4908551F48005D401C40B21D4908
S31508009EF0085508460057642801DB0020085519480C
S31508009F00005716490957884203DB002016490855A9
S31508009F1002E0012014490855134A1157621C50B231
S31508009F2000F0B8F8601C44B2AC42FFF637AF70BD1B
S31508009F306C0000205C0000204C000020500000202F
S31508009F4058000020600000206400002068000020FF
S31508009F505400002040000020440000203C0000205F
S31508009F6048000020380000203400002008B50121F0
S31508009F70102000F04BFA4FF48070ADF80000102066
S31508009F808DF8030003208DF8020069461348FFF791
S31508009F909BFC0121102000F039FA4FF40070ADF84F
S31508009FA0000010208DF8030003208DF80200694692
S31508009FB00A48FFF789FC0121042000F027FA4FF42C
S31508009FC08070ADF8000010208DF8030003208DF88E
S31508009FD0020069460248FFF777FC08BD00100140F9
S31508009FE0000801400420704770B5FFF7BFFF4FF423
S31508009FF080711048FFF745FD4FF400710D48FFF7D3
S3150800A00040FD4FF480710C48FFF73BFDFFF7EAFF70
S3150800A0100546042D00DD0425002407E0611C48B22E
S3150800A02002220321FFF78EFE601C44B2AC42F5DB28
S3150800A03070BD0000001001400008014070B50546DB
S3150800A040681E44B2002006490855064908552846A0
S3150800A05001F0BAFF0021284600F01CF870BD000088
S3150800A060400000205C00002070B50546681E44B21A
S3150800A07000200649085506490855284601F0ACFF50
S3150800A0800121284600F006F870BD000040000020B7
S3150800A0905C00002070B505460C46012D04D0022D43
S3150800A0A00FD0032D27D119E02CB14FF48071134836
S3150800A0B0FFF7E9FC04E04FF480711048FFF7E1FC74
S3150800A0C019E02CB14FF400710C48FFF7DCFC04E0F2
S3150800A0D04FF400710948FFF7D4FC0CE02CB14FF49B
S3150800A0E080710748FFF7CFFC04E04FF480710448FD
S3150800A0F0FFF7C7FC00BF00BF70BD0000001001409D
S3150800A1000008014000BFFEE7F0B58BB007460C46D5
S3150800A11015461E460121084600F058F93846FEF74E
S3150800A120B5FB009401951020029003960020049038
S3150800A1308020059000200690079008904FF48050E4
S3150800A140099000200A9069463846FEF75FFC0BB076
S3150800A150F0BD70B504460D4600212046FEF78AFB81
S3150800A16029462046FEF770FC01212046FEF782FBB1
S3150800A17070BD704770B5002100230F22C47804B360
S3150800A180154C246804F4E064C4F5E064210AC1F1BE
S3150800A1900403CA40447804FA03F18478144021433E
S3150800A1A009010E4C0678A155047804F01F05012410
S3150800A1B0AC4005786D11AD0005F1E025C5F8004104
S3150800A1C009E0047804F01F050124AC40044D067824
S3150800A1D0761145F8264070BD0CED00E000E400E07D
S3150800A1E080E100E002490143024A1160704700001D
S3150800A1F00000FA050CED00E0024A0A400243024B51
S3150800A2001A60704780FFFF1F08ED00E010B54FF495
S3150800A21000510948FFF735FC40210848FFF731FC93
S3150800A2204FF400410448FFF72CFC4FF480410248E4
S3150800A230FFF727FC10BD0000000C0140001001408C
S3150800A24010B54FF400510948FFF71DFC4021084896
S3150800A250FFF719FC4FF400410448FFF712FC4FF4CE
S3150800A26080410248FFF70DFC10BD0000000C0140BC
S3150800A2700010014010B520212548FFF704FC0120F5
S3150800A280FFF7F2FE0220FFF7EFFE0320FFF7ECFED2
S3150800A29040211F48FFF7F5FB4FF400411D48FFF723
S3150800A2A0F0FB4FF480411B48FFF7EBFB4FF40051DE
S3150800A2B01848FFF7E6FB1848FEF7FEF90120FFF7F6
S3150800A2C0BDFE0220FFF7BAFE0320FFF7B7FE4021C6
S3150800A2D00F48FFF7D8FB4FF400410E48FFF7D3FBB2
S3150800A2E04FF480410B48FFF7CEFB4FF40051094865
S3150800A2F0FFF7C9FB0848FEF7DFF902210748FFF711
S3150800A300B7FB10B1FEF7E8F801E0FEF7D7F810BD85
S3150800A31000100140000C014020A107000008014080
S3150800A3207047000008B50121042000F06FF84020AE
S3150800A330ADF8000018208DF8030003208DF8020000
S3150800A34069460A48FFF7C0FA0121042000F05EF8C2
S3150800A3508020ADF8000018208DF8030003208DF842
S3150800A360020069460148FFF7AFFA08BD0008014038
S3150800A37008B50121042000F049F84020ADF8000096
S3150800A38010208DF8030003208DF8020069460E4858
S3150800A390FFF79AFA0121042000F038F88020ADF87A
S3150800A3A0000010208DF8030003208DF8020069468E
S3150800A3B00548FFF789FA40210348FFF762FB802129
S3150800A3C00148FFF75EFB08BD0008014029B1064AAF
S3150800A3D052690243044B5A6104E0034A52698243B4
S3150800A3E0014B5A61704700000010024029B1064A25
S3150800A3F0D2690243044BDA6104E0034AD269824314
S3150800A400014BDA61704700000010024029B1064A84
S3150800A41092690243044B9A6104E0034A92698243B3
S3150800A420014B9A6170470000001002400F4800680F
S3150800A43040F001000D490860084640680C4908408C
S3150800A4400A494860084600680A49084007490860FA
S3150800A4500846006820F4802008600846406820F412
S3150800A460FE0048604FF41F008860704700100240E5
S3150800A4700000FFF8FFFFF6FE30B500210022002499
S3150800A48000232D4D6D6805F00C0121B1042905D076
S3150800A490082923D105E0294D056022E0274D0560EE
S3150800A4A01FE0254D6D6805F47012234D6D6805F49F
S3150800A4B08034022505EB92421CB9214D55430560AF
S3150800A4C00BE01D4D6D6805F400351DB11C4D554357
S3150800A4D0056002E0194D5543056002E0174D056019
S3150800A4E000BF00BF144D6D6805F0F0010909154D50
S3150800A4F06B5C0568DD4045600F4D6D6805F4E061ED
S3150800A500090A104D6B5C4568DD4085600A4D6D682B
S3150800A51005F46051C90A0B4D6B5C4568DD40C560A2
S3150800A520054D6D6805F44041890B074D6B5CC568A0
S3150800A530B5FBF3F5056130BD0010024000127A0044
S3150800A54000093D00000000201000002030B5034639
S3150800A5500C461546002207E0184600F008F824F8CD
S3150800A56012009B1C501C82B2AA42F5DB30BD014684
S3150800A570088870472DE9F05F80468A461746B8F185
S3150800A580006F02D33448804501D3BDE8F09FFEF73B
S3150800A5908DFF3420FEF71AFFA8F1006B4FEA9B25C2
S3150800A5A0CBF34809C9F50074A74200DC3C464DE0E8
S3150800A5B04FF0006101EB85208A142849FFF7C6FF92
S3150800A5C000260BE009EB0600244931F810004FF687
S3150800A5D0FF71884200D003E0701C86B2A642F1DB08
S3150800A5E000BFA6421BDA4FF0006101EB8520FEF79B
S3150800A5F0F3FE002608E03AF8160006EB0901174AAA
S3150800A60022F81100701C86B2A642F4DB4FF00061F6
S3150800A61001EB85208A14114900F022F804E022464D
S3150800A6205146404600F01CF8A74200D10FE06D1CC9
S3150800A6304FF000090AEB440AA044381B87B2B7F565
S3150800A640007F02DD4FF4007400E03C46B0E700BF2F
S3150800A650FEF702FF00BF98E7000002081C19002059
S3150800A6602DE9F04105460E461746002407E036F860
S3150800A67014102846FEF7FAFEAD1C601C84B2BC42D4
S3150800A680F5DBBDE8F081704708B501210420FFF726
S3150800A690BDFE4020ADF8000018208DF80300032009
S3150800A6A08DF8020069460448FFF70EF901210348B0
S3150800A6B000F0FCFA08BD0000000801400004004054
S3150800A6C008B501210420FFF7A1FE8020ADF800009F
S3150800A6D018208DF8030003208DF802006946044807
S3150800A6E0FFF7F2F80121034800F0E0FA08BD000080
S3150800A6F000080140000400402DE9F0438FB00446ED
S3150800A7000E46174698464FF0000955208DF800006A
S3150800A710AA208DF80100201DC0B28DF80200002085
S3150800A7208DF8030073208DF804008DF805608DF808
S3150800A7300670002506E018F80510E81D0DF800104B
S3150800A740681CC5B2A542F6DB601DC1B20DF1020058
S3150800A750FEF74AF881464FEA2921E01D0DF8001058
S3150800A76009F0FF01401C0DF80010421C6946034819
S3150800A77001F0E9F80FB0BDE8F083000000050020FD
S3150800A7802DE9F0438FB004460E46174698464FF01B
S3150800A790000955208DF80000AA208DF80100201D1B
S3150800A7A0C0B28DF8020000208DF8030073208DF8E2
S3150800A7B004008DF805608DF80670002506E018F887
S3150800A7C00510E81D0DF80010681CC5B2A542F6DB99
S3150800A7D0601DC1B20DF10200FEF706F881464FEA88
S3150800A7E02921E01D0DF8001009F0FF01401C0DF8A5
S3150800A7F00010421C6946034801F0A5F80FB0BDE8F1
S3150800A800F08300000005002010B586B00446142128
S3150800A81001A8FDF70CFD082C7AD2DFE804F09A04AB
S3150800A820224E40667A844D48007A01280CD11220BF
S3150800A8308DF8040001208DF8050001AB01223321B3
S3150800A8400220FFF759FF0BE012208DF804000020C4
S3150800A8508DF8050001AB012233210220FFF74CFFDA
S3150800A86078E03E48407A01280CD134208DF804005F
S3150800A87001208DF8050001AB012233210220FFF7E4
S3150800A8803BFF0BE034208DF8040000208DF805000E
S3150800A89001AB012233210220FFF72EFF5AE04220A6
S3150800A8A08DF804002E4840798DF8050001AB012289
S3150800A8B033210220FFF720FF4CE041208DF80400E9
S3150800A8C02849486801F0F6FD000A8DF80500254973
S3150800A8D0486801F0EFFDC0B28DF8060001AB012211
S3150800A8E033210320FFF708FF34E043208DF80400E6
S3150800A8F01B48408900128DF805001948807A8DF8A2
S3150800A900060001AB012233210320FFF7F5FE21E003
S3150800A9101FE0AD208DF8040001AB0122332110465B
S3150800A920FFF7EAFE16E035208DF804000B48C07BD9
S3150800A9308DF805000948007C8DF80600084800795E
S3150800A9408DF8070001AB012233210420FFF7D4FE5E
S3150800A95000BF00BF00BF06B010BD000048210020A0
S3150800A9605C210020A021002010B500F001F810BDE0
S3150800A9700CB50020019000903348006840F4803000
S3150800A9803149086000BF3048006800F40030009084
S3150800A9900198401C0190009818B90198B0F5A06F6D
S3150800A9A0F1D12948006800F4003010B10120009068
S3150800A9B001E0002000900098012843D12348006850
S3150800A9C040F01000214908600846006820F003009E
S3150800A9D008600846006840F0020008601A484068A7
S3150800A9E0194948600846406848600846406840F487
S3150800A9F0806048600846406820F47C104860084635
S3150800AA00406840F4E81048600846006840F08070E6
S3150800AA10086000BF0C48006800F000700028F9D0F4
S3150800AA200948406820F0030007494860084640681E
S3150800AA3040F00200486000BF0348406800F00C0080
S3150800AA400828F9D10CBD0000001002400020024081
S3150800AA5008B501211020FFF7D9FC4020ADF8000009
S3150800AA6010208DF8030003208DF802006946264859
S3150800AA70FEF72AFF01210820FFF7C8FC4FF4004023
S3150800AA80ADF8000010208DF8030003208DF80200B1
S3150800AA9069461E48FEF718FF01210820FFF7B6FC95
S3150800AAA04FF48040ADF8000010208DF80300032015
S3150800AAB08DF8020069461548FEF706FF01210820B1
S3150800AAC0FFF7A4FC4FF40050ADF8000010208DF8F5
S3150800AAD0030003208DF8020069460C48FEF7F4FED1
S3150800AAE040210948FEF7CDFF4FF400410748FEF71D
S3150800AAF0C8FF4FF480410548FEF7C3FF4FF40051E5
S3150800AB000248FEF7BEFF08BD00100140000C0140D8
S3150800AB1010B540210648FEF7B4FF4FF4004105483A
S3150800AB20FEF7AFFF4FF480410248FEF7AAFF10BDBB
S3150800AB3000100140000C014010B540210648FEF700
S3150800AB40A0FF4FF400410548FEF79DFF4FF48041F2
S3150800AB500248FEF796FF10BD00100140000C0140A8
S3150800AB600020084908720849087006490871488093
S3150800AB7001204873002088730120034908710149A0
S3150800AB80C8727047482100205C21002070470000E9
S3150800AB9010B51348006840F00100114908600846DE
S3150800ABA04068104908400E494860084600680E4942
S3150800ABB008400B4908600846006820F480200860B1
S3150800ABC00846406820F4FE0048604FF41F0088607D
S3150800ABD0FFF7CAFE4FF000600449086010BD000088
S3150800ABE0001002400000FFF8FFFFF6FE08ED00E047
S3150800ABF010B50121880700F065F8002848D02548D7
S3150800AC000068401C2349086023480068401C224904
S3150800AC1008602249884202DB00201F4908601E4856
S3150800AC2000680F2190FBF1F201FB120008B900F051
S3150800AC307BF919480068962190FBF1F201FB120096
S3150800AC4008B900F065F91448006840F2EE2190FB57
S3150800AC50F1F201FB120008B900F064FA0E48006828
S3150800AC6041F64C5190FBF1F201FB120008B900F0D5
S3150800AC7031FA0948006843F6982190FBF1F201FB86
S3150800AC80120008B900F024FA0121880700F00BF831
S3150800AC9010BD0000180000201C00002000512502ED
S3150800ACA0CA4302827047CA430282704721B10288AA
S3150800ACB042F00102028004E002884FF6FE731A4051
S3150800ACC00280704730B50246002000230024158A0A
S3150800ACD005EA0103958905EA010413B10CB10120BF
S3150800ACE000E0002030BD1AB183890B43838102E05E
S3150800ACF083898B438381704770B500240022002323
S3150800AD00058C4FF6FE7635400584028C8388048BC5
S3150800AD104FF68F752C40B51E2C400D882C43751E9A
S3150800AD202A400D892A434D882A43144DA8420BD040
S3150800AD30134DA84208D0134DA84205D0124DA8427B
S3150800AD4002D0124DA84213D14FF6F7752A404D8905
S3150800AD502A434FF6FB752A408D882A434FF6FF652E
S3150800AD602B404FF6FF552B408D892B43CD892B431E
S3150800AD7083800483CD888586028470BD002C0140BB
S3150800AD8000340140004001400044014000480140B1
S3150800AD900A460021018B4FF6F773194011430183C8
S3150800ADA07047000070B5002400220023058C4FF67A
S3150800ADB0EF7635400584028C8388048B48F6FF7548
S3150800ADC02C404FF6FF452C400D884FF6FF7606EAD5
S3150800ADD005252C434FF6DF752A400D8906EA051529
S3150800ADE02A434D8806EA05152A43154DA84202D07E
S3150800ADF0144DA8421DD14FF67F752A404D894FF64E
S3150800AE00FF7606EA05152A434FF6BF752A408D8850
S3150800AE1006EA05152A434FF6FF352B404FF2FF7514
S3150800AE202B408D8906EA85052B43CD8906EA8505DB
S3150800AE302B4383800483CD880587028470BD000078
S3150800AE40002C0140003401400A460021018B4FF2D4
S3150800AE50FF7319404FF6FF7303EA02231943018370
S3150800AE607047818670470187704700000022028874
S3150800AE701D4B98420ED01D4B98420BD0B0F1804F17
S3150800AE8008D01B4B984205D01A4B984202D01A4B51
S3150800AE90984204D14FF68F731A404B881A43174BC2
S3150800AEA0984207D0164B984204D04FF6FF431A40F3
S3150800AEB0CB881A4302808B8883850B8803850A4BC7
S3150800AEC098420BD0094B984208D00E4B984205D0B1
S3150800AED00D4B984202D00D4B984201D10B7A03864E
S3150800AEE00123838270470000002C01400034014092
S3150800AEF00004004000080040000C0040001000401C
S3150800AF000014004000400140004401400048014050
S3150800AF1010B5FEF7F5FDFEF7C3FDFDF7F9FA0128B2
S3150800AF2001D0FDF70DFB10BD10B5FDF75FFAFEF772
S3150800AF301FFF61480068401C5F4908604EF66021A3
S3150800AF40884202DD00205C4908605C48008A401C93
S3150800AF505A4908820846008A4EF66021884202DD70
S3150800AF600020564908825648007901287ED0544860
S3150800AF70C079012811D15248407A01280DD14F488D
S3150800AF80C079042809D04D4AD189507900F0EAFEE3
S3150800AF904A49C87900F018FD23E04948C0790128D4
S3150800AFA011D14748407A01280DD14448C079042870
S3150800AFB009D1424AD189507900F0D4FE3F49C8796F
S3150800AFC000F002FD0DE03E48C079012809D13C4851
S3150800AFD0407A30B90021084600F0C4FE002000F08F
S3150800AFE0F3FC3748007A50B13548407938B13349CF
S3150800AFF04A8808784FF47A71FEF7D4FA05E00022F9
S3150800B0004FF47A711046FEF7CDFA2E480079B0B1A2
S3150800B0102B48807A022812D12A48407B01280ED173
S3150800B020264AD189507900F09DFE2449C87900F056
S3150800B030CBFC4FF480412448FEF725FD39E0214832
S3150800B040407BD0B91F480079012816D181031E48D4
S3150800B050FEF717FDFEF782F940211C48FEF711FDA1
S3150800B0604FF400411848FEF70CFD00E023E04FF4CA
S3150800B07080411548FEF705FD1BE01248407B012874
S3150800B08017D110480079A0B94FF480410E48FEF751
S3150800B090F8FCFEF763F940210C48FEF7F2FC4FF482
S3150800B0A000410948FEF7EDFC4FF480410648FEF7DB
S3150800B0B0E8FCFDF729FB10BDE40000205C21002018
S3150800B0C0482100201C210020000C014000100140EE
S3150800B0D07047000010B502211048FEF7C9FC68B198
S3150800B0E00F48807C401C0E4988740846807C0428DA
S3150800B0F004DC002211460120FDF760F90848007BB0
S3150800B100012808D10520FFF77FFB0320FFF77CFB0A
S3150800B1100420FFF779FBFEF7C3FC10BD00080140C9
S3150800B1204821002010B5FEF7CBFD10BD0021154AB9
S3150800B1301278032A09DA144A124B1B78D054114A9A
S3150800B1401278521C0F4B1A701AE000220D4B1A7017
S3150800B1500D4A12780D4B1A730B4A52785A731A46CF
S3150800B160127B5B7B1A44D1B2074A92788A4207D18E
S3150800B170064A527B054B1B7B42EA0322034B5A8144
S3150800B18070470000B0000020B10000205C210020BC
S3150800B19008B501210820FFF739F94FF48060ADF8AA
S3150800B1A0000010208DF8030003208DF80200694680
S3150800B1B00448FEF789FB4FF480610248FEF763FCFA
S3150800B1C008BD0000000C01400146002291F8080461
S3150800B1D008B90020704701F2044108680278086837
S3150800B1E0401C086000204871CB880868A1F2044119
S3150800B1F00B44984201D3C1F80414D1F80034D1F8AD
S3150800B2000404984202D1002081F808041046E1E7B8
S3150800B21030B50B46002114E05C5C00F580600568DB
S3150800B2202C700468641C046001240472458904684F
S3150800B230A0F580600544AC4201D3C0F800044C1C5C
S3150800B240A1B29142E8DB30BDC0F80004C0F804049E
S3150800B250A0F80A14002280F8082480F80824704709
S3150800B26000B585B001210420FFF7D0F80121880335
S3150800B270FFF7CCF84FF40070ADF8100018208DF8E1
S3150800B280130003208DF8120004A91748FEF71CFBCB
S3150800B2904FF48060ADF8100004208DF8130004A95F
S3150800B2A01148FEF711FB4FF4165000900020ADF838
S3150800B2B00400ADF80600ADF80800ADF80C000C2047
S3150800B2C0ADF80A006946094800F0C8FA00F0D4F853
S3150800B2D0012240F22441054800F09AFA0121034868
S3150800B2E000F04AFA05B000BD0008014000380140E8
S3150800B2F000B58BB001210846FFF768F812480090A0
S3150800B30012480190002002904FF4806003900020BC
S3150800B31004908020059000200690079008904FF42E
S3150800B3208050099000200A9069460948FDF76EFB8F
S3150800B33001210748FDF79EFA012240210248001F15
S3150800B34000F026FA0BB000BD0438014008090020B9
S3150800B3505800024010B54FF40050FDF741FB38B1D4
S3150800B3604FF40050FDF778FA01202F4981F80604BA
S3150800B3702D4890F80604012855D12B48B0F8040446
S3150800B380002850D02848B0F800042749B1F804141A
S3150800B3900844B0F5806F1FDB2348B0F8040422493F
S3150800B3A0B1F80014C1F58061401A1F49A1F80404D8
S3150800B3B00846B0F80004C0F5806084B20846B0F8C4
S3150800B3C000044218234619491948FEF79DFE002035
S3150800B3D01549A1F8000418E01348B0F80444B0F879
S3150800B3E0000411494218234610491148FEF78CFEFD
S3150800B3F00D48B0F800040C49B1F8041408440A4989
S3150800B400A1F800040020A1F80404012280210748BD
S3150800B410001F00F0BDF921460548FEF79AFE0020F8
S3150800B420014981F8060410BD0005002004380140D2
S3150800B4304400024010B540F224410B4800F0BEF922
S3150800B44088B1094800F076FA0848FDF7C5FAC0F54C
S3150800B450806084B2224606490648FFF7D9FE21468F
S3150800B4600248FEF776FE10BD00380140580002403B
S3150800B47008090020F400002008B54FF44070FEF7D4
S3150800B480B1FE25208DF8000001208DF8010000206E
S3150800B4908DF8020001208DF803006846FEF76AFE63
S3150800B4A008BD70B504460D462946204600F047FA01
S3150800B4B000BF8021204600F074F90028F9D070BD3D
S3150800B4C070B505460C4604E021782846FFF7E9FFE3
S3150800B4D0641C20780028F7D170BD000000B54FF431
S3150800B4E080610348FFF7B0FE0248FDF7A9F900BDE1
S3150800B4F0F40000200005002000B585B001210420D5
S3150800B500FEF784FF01214804FEF770FF0420ADF81A
S3150800B510100018208DF8130003208DF8120004A9D6
S3150800B5201648FEF7D1F90820ADF8100004208DF86A
S3150800B530130004A91148FEF7C7F94FF416500090F6
S3150800B5400020ADF80400ADF80600ADF80800ADF827
S3150800B5500C000C20ADF80A006946094800F07EF98F
S3150800B56000F0D4F8012240F22441054800F050F9D1
S3150800B5700121034800F000F905B000BD00080140AC
S3150800B5800044004000B58BB001210846FEF71EFFB7
S3150800B5901248009012480190002002904FF48060F3
S3150800B5A003900020049080200590002006900790C4
S3150800B5B008904FF48050099000200A90694609487F
S3150800B5C0FDF724FA01210748FDF754F90122402125
S3150800B5D00248001F00F0DCF80BB000BD0444004030
S3150800B5E01C1500206C00024010B54FF00070FDF7E6
S3150800B5F0F7F938B14FF00070FDF72EF901202F4901
S3150800B60081F806042D4890F80604012855D12B48E0
S3150800B610B0F80404002850D02848B0F80004274998
S3150800B620B1F804140844B0F5806F1FDB2348B0F85E
S3150800B63004042249B1F80014C1F58061401A1F4973
S3150800B640A1F804040846B0F80004C0F5806084B286
S3150800B6500846B0F800044218234619491948FEF767
S3150800B66053FD00201549A1F8000418E01348B0F866
S3150800B6700444B0F8000411494218234610491148F9
S3150800B680FEF742FD0D48B0F800040C49B1F8041461
S3150800B69008440A49A1F800040020A1F8040401227C
S3150800B6A080210748001F00F073F821460548FEF779
S3150800B6B050FD0020014981F8060410BD1411002030
S3150800B6C0044400408000024010B540F224410B4873
S3150800B6D000F074F888B1094800F02CF90848FDF71D
S3150800B6E07BF9C0F5806084B2224606490648FFF712
S3150800B6F08FFD21460248FEF72CFD10BD0044004090
S3150800B7006C0002401C150020080D002008B54FF4F7
S3150800B7104070FEF767FD26208DF8000007208DF89B
S3150800B720010000208DF8020001208DF8030068460C
S3150800B730FEF720FD08BD000000B54FF48061034800
S3150800B740FFF782FD0248FDF77BF800BD080D0020D3
S3150800B7501411002010B540F22551064800F02EF8C5
S3150800B76030B1044800F0E6F8C4B22046FFF7DEFC24
S3150800B77010BD00000048004021B1828942F4005201
S3150800B780828104E082894DF6FF731A4082817047F0
S3150800B7901AB1838A0B43838202E0838A8B438382AE
S3150800B7A0704702460020B1F5007F00D100BF13881C
S3150800B7B00B400BB1012000E00020704770B502462F
S3150800B7C0002400230025002040F66A16B14200D165
S3150800B7D000BFC1F3421501F01F03012606FA03F361
S3150800B7E0012D02D19689334006E0022D02D1168A30
S3150800B7F0334001E0968A33400C12012606FA04F417
S3150800B8001688344013B10CB1012000E0002070BD49
S3150800B810F0B50346002400260025002040F66A17E6
S3150800B820B94200D100BF1846C1F3421401F01F0601
S3150800B830012707FA06F5012C01D10C3004E0022C89
S3150800B84001D1103000E014301AB107682F430760A1
S3150800B85002E00768AF430760F0BD00002DE9F04736
S3150800B86086B005460E460024A24600BFA14600271C
S3150800B870B08900B100BF2F462C8A4CF6FF700440F1
S3150800B880F08804432C82AC894EF6F3100440B08845
S3150800B89031890843718908430443AC81AC8A4FF661
S3150800B8A0FF400440B0890443AC8201A8FEF7E4FDDA
S3150800B8B01F48874202D1DDF810A001E0DDF80CA090
S3150800B8C0A88900F4004040B10AEBCA0000EB0A1050
S3150800B8D031684900B0FBF1F807E00AEBCA0000EB53
S3150800B8E00A1031688900B0FBF1F86420B8FBF0F063
S3150800B8F004012009642101FB1089A88900F400408D
S3150800B90040B1322000EBC900B0FBF1F000F00700AF
S3150800B910044308E0322000EB09106421B0FBF1F083
S3150800B92000F00F0004432C8106B0BDE8F087000044
S3150800B9300038014001468888C0F308007047C1F303
S3150800B94008028280704730B50B46002114E05C5C23
S3150800B950B0F802544455B0F8024440F2FF35AC4200
S3150800B96005DAB0F80244641CA0F8024402E0002498
S3150800B970A0F802444C1CA1B29142E8DBB0F804449A
S3150800B9801444A0F8044430BD0B490C4A1278895C6B
S3150800B99081420DD109490978491CC9B2074A117073
S3150800B9A0082908D1002111700121054A518002E0B9
S3150800B9B00021024A11707047C5000020C40000200B
S3150800B9C04821002000BFFEE770B50446052C71D259
S3150800B9D0DFE804F0030671DBFE00FFF799F8B5E12E
S3150800B9E0DB494868DB4900F049FE0546DA494889DB
S3150800B9F000F080FD0646294600F00FFE30D2D449F5
S3150800BA004868D44900F0E8FC0546D349488900F05F
S3150800BA1071FD0646294600F081FD21D2CF480088EF
S3150800BA20401CCE49088008460088642805DA4FF489
S3150800BA300041CB48FEF725F83BE0C8480088642853
S3150800BA400ADBC6480088B0F5FA7F05DA4FF40041EC
S3150800BA50C348FEF718F82CE00020C049088028E003
S3150800BA60BB494868BB4900F0B7FC0546BA4948894E
S3150800BA7000F040FD0646294600F0CFFD05D84FF4F4
S3150800BA800041B748FDF7FDFF13E0B1494868B149E1
S3150800BA9000F0F4FD0546B049488900F02BFD06463E
S3150800BAA0294600F03BFD04D84FF40041AC48FDF7A9
S3150800BAB0EAFF4BE149E1A6494868A64900F0DEFDE0
S3150800BAC00546A549488900F015FD0646294600F0B1
S3150800BAD0A4FD30D29E4948689E4900F07DFC054683
S3150800BAE09D49488900F006FD0646294600F016FDE0
S3150800BAF021D29A480088401C984908800846008840
S3150800BB00642805DA4FF400419548FDF7BAFF3BE093
S3150800BB109248008864280ADB90480088B0F5FA7FC6
S3150800BB2005DA4FF400418E48FDF7ADFF2CE0002002
S3150800BB308A49088028E086494868864900F04CFC0E
S3150800BB4005468549488900F0D5FC0646294600F091
S3150800BB5064FD05D84FF400418148FDF792FF13E0D4
S3150800BB607B4948687B4900F089FD05467A4948893A
S3150800BB7000F0C0FC0646294600F0D0FC04D84FF475
S3150800BB8000417748FDF77FFFE0E071494868714951
S3150800BB9000F074FD05467049488900F0ABFC06467E
S3150800BBA0294600F03AFD32D269494868694900F0E9
S3150800BBB013FC05466849488900F09CFC0646294658
S3150800BBC000F0ACFC23D265480088401C634900E0BD
S3150800BBD047E0088008460088642805DA4FF40041E3
S3150800BBE05F48FDF74EFF3BE05C48008864280ADBA7
S3150800BBF05A480088B0F5FA7F05DA4FF400415848EC
S3150800BC00FDF741FF2CE000205449088028E0504900
S3150800BC104868504900F0E0FB05464F49488900F05E
S3150800BC2069FC0646294600F0F8FC05D84FF40041A1
S3150800BC304B48FDF726FF13E045494868454900F09B
S3150800BC401DFD05464449488900F054FC0646294628
S3150800BC5000F064FC04D84FF400414148FDF713FF97
S3150800BC6074E03D484079032869DC39494868394910
S3150800BC7000F004FD05463849488900F03BFC0646B5
S3150800BC80294600F0CAFC30D231494868314900F0EB
S3150800BC90A3FB05463049488900F02CFC0646294690
S3150800BCA000F03CFC21D22D480088401C2B49088016
S3150800BCB008460088642805DA4FF400412848FDF74D
S3150800BCC0E0FE41E02548008864280ADB234800880E
S3150800BCD0B0F5FA7F05DA4FF400412148FDF7D3FEA7
S3150800BCE032E000201D4908802EE0194948681949A4
S3150800BCF000F072FB05461849488900F0FBFB06462A
S3150800BD00294600F08AFC05D84FF400411448FDF78F
S3150800BD10B8FE19E00E4948680E4900F0AFFC054622
S3150800BD200D49488900F0E6FB0646294600F0F6FB71
S3150800BD300AD84FF400410A48FDF7A5FE04E04FF47F
S3150800BD4000410748FDF79FFE00E000BF00BF70BD39
S3150800BD50A02100200000C8425C210020F00000203D
S3150800BD60000C014070B505460C4639480068401C71
S3150800BD7037490860052D67D2DFE805F00309264331
S3150800BD8060004FF480413348FDF77BFE5DE03048A4
S3150800BD900068A04205DC4FF480412E48FDF771FE8D
S3150800BDA011E02B480068B0EB440F09DC284800680E
S3150800BDB0A04205DD4FF480412648FDF764FE02E007
S3150800BDC000202349086040E021480068A04205DCBD
S3150800BDD04FF480411F48FDF754FE11E01C480068E7
S3150800BDE0B0EB440F09DA1A480068A04205DD4FF4A3
S3150800BDF080411848FDF747FE02E000201449086014
S3150800BE0023E013480068A04205DC4FF4804111483E
S3150800BE10FDF737FE11E00E480068B0EB440F09DA6B
S3150800BE200B480068A04205DD4FF480410948FDF73C
S3150800BE302AFE02E000200649086006E04FF4804129
S3150800BE400448FDF720FE00E000BF00BF70BD0000FB
S3150800BE50EC000020000C014008B501210420FEF783
S3150800BE60D5FA0220ADF8000004208DF8030003205F
S3150800BE708DF8020069460248FDF726FD08BD000058
S3150800BE800008014010B51E48407CB8B902211D487B
S3150800BE90FDF7EEFD48B101201949C8730720FEF7E2
S3150800BEA0B3FC01201649487408E000201449C873F9
S3150800BEB00720FEF7A9FC0120114948740221114800
S3150800BEC0FDF7D6FD60B10E48407C012817D10C4914
S3150800BED0C8730720FEF798FC0220094948740EE04B
S3150800BEE00748407C02280AD100200549C873072064
S3150800BEF0FEF78AFC0120024948740020887410BDA8
S3150800BF00482100200008014010B51248007A01288F
S3150800BF100DD010484079012809D100221146FCF7B6
S3150800BF204DFA01200B490872FEF76EFC11E009482C
S3150800BF30007A01280DD107484079012809D1002245
S3150800BF401146FCF73BFA0020024908720120FEF769
S3150800BF505BFC10BD4821002010B51948407A01281D
S3150800BF6015D01748C079012811D100221146FCF7CF
S3150800BF7025FAFEF7E1FD4FF480411248FDF781FDF1
S3150800BF8001200F4948720220FEF73EFC16E00C48D5
S3150800BF90407A012812D10A48C07901280ED1002218
S3150800BFA01146FCF70BFA4FF480410648FDF76BFD86
S3150800BFB00020034948720220FEF726FC10BD000047
S3150800BFC048210020000C01400022411E014B5A5412
S3150800BFD0704700003C0000206422411E014B5A5461
S3150800BFE0704700003C00002000BF70474FF0E0217A
S3150800BFF0096941F004014FF0E02211610549086022
S3150800C0001146096941F0010111616FF070415161F2
S3150800C01070470000B800002010B504464FF47A7146
S3150800C02004FB01F000F002F810BD000070B50346ED
S3150800C03000224FF0E02675690D4E366803FB06F4BC
S3150800C0404FF0E026B16910E04FF0E026B06988426B
S3150800C0500BD0884202D20E1A324402E02E1A0E443F
S3150800C06032440146A24200D300E0EDE700BF70BDAE
S3150800C070B800002008B500244FF00060009072B6A2
S3150800C08000204FF0E021086148618861FEF7CEF98B
S3150800C090002408E04FF0FF310B4840F824100B4805
S3150800C0A040F82410641C082CF4D362B6009845683E
S3150800C0B000990868FCF771F8002080F3148800BF1F
S3150800C0C0A84700BFFEE7000080E100E080E200E04C
S3150800C0D072B6FCF709F9FEF743FD40F27121042018
S3150800C0E0FDF7E2FC0121AB48FDF7CDFC4021AA484B
S3150800C0F0FDF7C7FC4FF40041A648FDF7C2FC4FF414
S3150800C1008041A448FDF7BDFC62B60122A349A448B4
S3150800C110FEF730FA3DE105E0A248FFF755F8044678
S3150800C120FDF770F89F4890F808040028F4D101E05C
S3150800C130FFF710F99C48B0F804040028F8D102204B
S3150800C140FFF76AFF05E09948FFF73EF80446FDF752
S3150800C15059F8964890F808040028F4D101E0FFF74A
S3150800C16043FA9348B0F804040028F8D18B48801E97
S3150800C1700079012801D1FEF77DF8FCF7C9F90128F5
S3150800C18023D120218448FDF77EFC19E04FF4806115
S3150800C1908848FCF72AF84FF480618748FCF725F8A9
S3150800C1A00620FEF731FB0720FEF72EFB002211467C
S3150800C1B00120FCF703F981480078401C7F49087084
S3150800C1C07E4800780028E1D00AE000207349891EDD
S3150800C1D0087020217048FDF754FC00207749087044
S3150800C1E0FFF750FE6D48801E408860B101226B49FA
S3150800C1F06B48FEF7BFF900206849891E4880FDF79D
S3150800C2004FFCFFF737FF6548801E8079012835D136
S3150800C210FEF716F86148801E407B01280BD15F485F
S3150800C220801E807B38B9FEF72FFAFDF7B5F8012096
S3150800C2305A49891E08745948801E407B60B9574878
S3150800C240801E807B012807D1FEF73AFAFDF78AF8A7
S3150800C25002205249891E087459480079012823D1B9
S3150800C2605748008A0E280ADA4FF4D2615548FEF775
S3150800C270F8FD4FF4D2615348FEF7F5FD7BE05048D0
S3150800C280008A0E280CDB4E48008A282808DA002186
S3150800C2904C48FEF7E6FD00214A48FEF7E4FD6AE051
S3150800C2A000204749088266E045480079022823D1DC
S3150800C2B04348008A0C280ADA4FF4F0614148FEF731
S3150800C2C0D0FD4FF4F0613F48FEF7CDFD53E03C4802
S3150800C2D0008A0C280CDB3A48008A282808DA00214C
S3150800C2E03848FEF7BEFD00213648FEF7BCFD42E0A1
S3150800C2F00020334908823EE031480079032823D1DB
S3150800C3002F48008A0F280ADA4FF407612D48FEF7EE
S3150800C310A8FD4FF407612B48FEF7A5FD2BE028483A
S3150800C320008A0F280CDB2648008A282808DA00210C
S3150800C3302448FEF796FD00212248FEF794FD1AE0F0
S3150800C34000201F49088216E01D48007904280AD1F2
S3150800C3504FF416611B48FEF784FD4FF41661194821
S3150800C360FEF781FD07E000211648FEF77AFD002159
S3150800C3701448FEF778FD1448C078012809D11348F7
S3150800C38000780F494871124800788871114800787A
S3150800C390C871C0E6000C0140001001404A21002087
S3150800C3A000E00108F400002000050020080D002028
S3150800C3B014110020080900201C1500201400002074
S3150800C3C05C210020000400401C210020D20000202F
S3150800C3D0D0000020D400002090EA010F48BF81F069
S3150800C3E0004100F15281421A3CBF801A89184FEA6F
S3150800C3F0D0524FF07F4C1CEA410FA2EBD15318BF25
S3150800C4009CEA026F00F03B804FF0004C4CEA00209B
S3150800C4104CEA012121FA03FC10EB0C0C1ED202F1A6
S3150800C420FF325FEA1C2040EBC25038BF70471CF051
S3150800C4307F0F4FEA400C18BFBCF17F4F38BF7047DB
S3150800C440C3F12003994008BF20F00100BCF17F4FDB
S3150800C45038BF7047A0F1C04000F0DAB84FEA3C0098
S3150800C460000A40EBC25028BF1CF0FF0F4FEA400CF1
S3150800C470E6D018BFBCF17F4F38BF7047EAE79CEAA1
S3150800C480026F05D010EA5C0F08BF00F00040704745
S3150800C49010B500F077F800BF64FBBE3E401058BFE9
S3150800C4A0C0F14040491058BFC1F140418142EFF305
S3150800C4B000807047C10DD1F19E0206DB4FEA0023CA
S3150800C4C043F0004323FA02F07047004207D54FEACB
S3150800C4D04001B1F1FE4F02D24FF00000704710B58F
S3150800C4E000F050F849922480002070476FEA200037
S3150800C4F070470000B0FA80F310FA03F2C3F19D0307
S3150800C5000AD0D90501EB1220530638BF704700F14F
S3150800C510010008BF20F001007047000050EA010C36
S3150800C52000F113801CF5000F58BFBCF5000F01D4AD
S3150800C5308842704707D710F5000F58BF11F5000F4E
S3150800C54015D488427047894270471CF5000F04D5F8
S3150800C550BCF5000FF7D5814270474FF0807C1CEB85
S3150800C560400F38BF1CEB410F01D28142704710B50E
S3150800C57000F008F8922449004FF000504FF080511F
S3150800C580FFF78CBF0EF1020E2EF0030E5EF8044B79
S3150800C590244204D44FEA4102B2F17F4F11D84FEA40
S3150800C5A04003B3F17F4F0CD80ED14FEAD07CB2F1DD
S3150800C5B07F4F0CEB4C0C0CF1020C08BF4CEBD17CFA
S3150800C5C004E04FF0080C01E04FEAD17C0CEB4C0379
S3150800C5D024FA03F404F00704B4F1040C06D20EEBB3
S3150800C5E0840CBDE810404CF0010C6047DFE80CF005
S3150800C5F0070802024FF00040A0F5800010BD08466B
S3150800C600420018BFD2F1807288BF00F0004010BD0A
S3150800C610FF2141EAD050C005704751EA000C00F1ED
S3150800C62013801CF5000F58BFBCF5000F01D48142DA
S3150800C630704707D711F5000F58BF10F5000F15D42E
S3150800C64081427047894270471CF5000F04D5BCF536
S3150800C650000FF7D5884270474FF0807C1CEB410FDE
S3150800C66038BF1CEB400F01D28842704780EA0100B0
S3150800C67081EA000180EA0100FFF779BF90EA010F1D
S3150800C68048BF81F000413FF5AEAE421A04D882F0A9
S3150800C6900042A0EB020011444FEAD0524FF07F4C03
S3150800C6A01CEA410FA2EBD15318BF9CEA026F4AD08D
S3150800C6B04FF0004C4CEA00204CEA012121FA03FC19
S3150800C6C0B0EB0C0C0FD412F0FE0F36D05FEA4C001C
S3150800C6D01DD5001240EBC25038BF70471CF03F0F03
S3150800C6E018BF70470BE0A2F101025FEA1C2040EB7D
S3150800C6F0C25038BF70471CF07F0F18BF7047C3F190
S3150800C7002003994014BF401E20F00100704780089E
S3150800C7104FEA122308BF7047B0FA80FCA2EB0C025E
S3150800C720CCF1280C60FA0CF093EA122F04BF00EB48
S3150800C730C25070474FEAC3707047130A5FEADC10AD
S3150800C74008BF7047F6E79CEA026F04D010EA5C0F50
S3150800C75008BF0020704710B5FFF714FF40DFF63E0C
S3150800C76081F000407047000088C7000800000020DC
S3150800C770F4000000288100087CC80008F4000020A6
S3150800C7802427000044810008000000000102030479
S3150800C790010203040607080902040608000000004F
S3150800C7A0000000000000000000A24A04000000008B
S3150800C7B00000000001020304060708090000000043
S3150800C7C0000000000000000000000000000000005B
S3150800C7D0000000000000000000000000000000004B
S3150800C7E0000000000000000000000000000000003B
S3150800C7F0000000000000000000000000000000002B
S3150800C80000FF0041542B4E414D45584C4D5F303288
S3150800C8100D0A0000000000010000000000000000F2
S3150800C82000000000000000000000000000000000FA
S3150800C83000000000000000000000000000000000EA
S3150800C84000000000000000000000000000465755E8
S3150800C850504441544500000000000000000000005C
S3150800C86000000000000000000000000000000000BA
S3110800C870000000000000000000000000AE
S705080080ED85
